:020000040800F2
:10000000980400209D010008AB0F0008590C00085F
:10001000A90F00082D020008811000080000000050
:10002000000000000000000000000000CF0F0008EA
:100030002F02000800000000CD0F0008D10F0008BB
:10004000B7010008B7010008B7010008B7010008B0
:10005000B7010008B7010008B7010008B7010008A0
:10006000B7010008B7010008B7010008B701000890
:10007000B7010008B7010008B7010008B701000880
:10008000B7010008B7010008B7010008B701000870
:10009000B7010008B7010008B7010008B701000860
:1000A000B7010008B7010008B7010008B701000850
:1000B000B7010008B701000800000000B701000800
:1000C000B70100080000000000000000B7010008B0
:1000D00000000000B7010008B7010008B7010008E0
:1000E000B7010008B7010008000000000000000090
:1000F0000000000000000000000000000000000000
:1001000000000000000000000000000000000000EF
:100110000000000000000000B7010008B70100085F
:1001200000000000000000000000000000000000CF
:1001300000000000000000000000000000000000BF
:10014000B7010008B701000800000000B70100086F
:10015000B7010008B7010008B7010008B70100089F
:10016000B7010008B701000800000000000000000F
:10017000000000000000000000000000000000007F
:1001800000000000B7010008DFF80CD000F03CF8D8
:1001900000480047A1100008980400200648804746
:1001A00006480047FEE7FEE7FEE7FEE7FEE7FEE75C
:1001B000FEE7FEE7FEE7FEE71910000889010008E8
:1001C00040EA01039B0703D009E008C9121F08C0D9
:1001D000042AFAD203E011F8013B00F8013B521E59
:1001E000F9D27047D2B201E000F8012B491EFBD2D0
:1001F00070470022F6E710B513460A460446194632
:10020000FFF7F0FF204610BD064C074D06E0E06802
:1002100040F0010394E8070098471034AC42F6D34D
:10022000FFF7B6FF84110008A4110008FEE770472D
:1002300070B5044600F0D8F80546601C02D00448AA
:100240000078044400F0D0F8401BA042FAD370BDFF
:10025000440000202DE9F84FDFF860B100234FF093
:10026000010C4FF0030A4FF00F090BF1040E9DE053
:100270000CFA03F6344022007ED04C68022C01D0E8
:10028000122C0ED1DC0800EB8408D8F820405D0762
:10029000EF0E09FA07F5AC430D69BD402543C8F8D8
:1002A000205007685D0091F804800AFA05F408F010
:1002B0000308A74308FA05F848EA0708C0F80080D1
:1002C0004F68012F05D0022F03D0112F01D0122F1C
:1002D00011D18768D1F80C80A74308FA05F848EADD
:1002E0000708C0F808804768B7430E79C6F30016C0
:1002F0009E403E434660C668A6438C68AC4034438B
:10030000C4604C68E40050D52D4CA56945F001054A
:10031000A561A46923F0030504F001040094294CAD
:100320002E19B4689D072F0F09FA07F5AC43B0F1F9
:10033000904F04D0244DA84203D101250CE00025A4
:100340000AE0224DA84201D1022505E0204DA84235
:1003500001D1032500E00525BD402543B560DBF84C
:1003600000405D464E689443F60300D514432C606C
:100370007546DEF8004000E017E04E689443B6038F
:1003800000D514432C600D4D08352C684E689443FD
:10039000F60200D514432C60084D0C352C684E68CD
:1003A0009443B60200D514432C605B1C0A681446C3
:1003B000DA407FF45DAFBDE8F88F00000004014033
:1003C00000100240000001400004004800080048FE
:1003D000000C00480069084000D0012070470AB1B5
:1003E00081617047816270470148806870470000F2
:1003F00044000020024881680278114481607047FF
:1004000044000020074810B5016841F01001016068
:10041000032000F05FF8002000F006F800F024F858
:10042000002010BD0020024070B50D4D04464FF471
:100430007A712878B1FBF0F00A490968B1FBF0F055
:1004400000F0F6FB48B9102C07D200222146501EBE
:1004500000F020F800206C6070BD012070BD00002D
:100460004400002050000020094808B5816941F08F
:1004700001018161816901F001010091C16941F0CF
:100480008051C161C06900F08050009008BD00003B
:1004900000100240F0B40E4B1B680C46C3F302235D
:1004A000C3F10705042D00D90425191D072901D220
:1004B000002300E0DB1E012606FA05F1491E21405B
:1004C00099409E40761E16403143F0BC00F06EBD50
:1004D0000CED00E0064900F0070208684FF6FF0344
:1004E000184040EA0220034A1043086070470000A9
:1004F0000CED00E00000FA052DE9F0470F4605007D
:1005000069D04A4E306800F00700B84209D230681E
:1005100020F0070038433060306800F00700B84230
:1005200059D12878424C800705D56068A96820F029
:10053000F000084360602878C0073DD0696801205A
:1005400001290DD0022923D05FF0020393FAA3F210
:10055000B2FA82F242F02002520904D0226803E08B
:100560004FF40033F2E7626A93FAA3F3B3FA83F32A
:1005700003F01F03984002422DD0606820F0030072
:1005800008436060FFF730FF804641F288390CE095
:100590004FF00073DAE700BFFFF726FFA0EB08017A
:1005A000494502D90320BDE8F0876068696800F01A
:1005B0000C00B0EB810FEFD1306800F00700B842BB
:1005C0000BD9306820F0070038433060306800F005
:1005D0000700B84201D00120E5E72878400705D59B
:1005E0006068E96820F4E0600843606028780007EC
:1005F00006D56068296920F4605040EAC100606057
:1006000000F01CF86168F02292FAA2F201F0F00109
:10061000B2FA82F2D140074A515CC84006490860EC
:100620000020FFF701FF0020BDE70000002002408E
:10063000001002403411000850000020144B10B587
:100640005A68144802F00C0104291DD008291BD156
:100650004FF4701494FAA4F402F47011B4FA84F410
:10066000E1400D4CDB6A615C0F2494FAA4F403F0C2
:100670000F03B4FA84F4E340074C1034D203E35C74
:1006800003D5B0FBF3F0484310BD0448484310BD08
:100690000010024000127A001411000800093D0009
:1006A0002DE9F84F040071D02078FB4DC0074FF0C2
:1006B000010625D068687704C0F38100012807D0BF
:1006C0006868C0F3810002281BD16868C00318D590
:1006D00097FAA7F0B0FA80F040F02000400901D06E
:1006E000286800E0686A97FAA7F1B1FA81F101F091
:1006F0001F0106FA01F1084265D060680028D2D0D7
:1007000061E06068B0F5803F0BD010B1B0F5A02F6C
:1007100017D0286820F480302860286820F48020D2
:1007200002E0286840F480302860E86AA16820F080
:100730000F000843E862606820B3FFF755FE80466B
:100740000AE0286840F480202860EAE7FFF74CFEC2
:10075000A0EB0800642872D897FAA7F0B0FA80F0EE
:1007600040F02000400901D0286800E0686A97FA4C
:10077000A7F1B1FA81F101F01F0106FA01F1084277
:10078000E4D020E0FFF730FE804607E0C7E000BF7E
:10079000FFF72AFEA0EB08006428DCD897FAA7F040
:1007A000B0FA80F040F02000400901D0286800E055
:1007B000686A97FAA7F1B1FA81F101F01F0106FA10
:1007C00001F10842E4D12078DFF8D08280074FF0B1
:1007D000000A4FF0020759D568684FF0F80B10F087
:1007E0000C0F07D06868C0F3810002281BD168682D
:1007F000C00318D497FAA7F0B0FA80F040F02000B8
:10080000400901D0286800E0686A97FAA7F1B1FAB8
:1008100081F101F01F0106FA01F108422BD0206995
:1008200001287CD127E0206988B396FAA6F0B0FAB7
:1008300080F048F82060FFF7D7FD814606E055E1DB
:10084000FFF7D2FDA0EB0900022884D897FAA7F0A1
:10085000B0FA80F040F02000400901D0286800E0A4
:10086000686A97FAA7F1B1FA81F101F01F0106FA5F
:1008700001F10842E4D028689BFAABF26169B2FA50
:1008800082F220F0F80091400843286025E0FFE75D
:1008900096FAA6F1B1FA81F148F821A0FFF7A4FD7C
:1008A000814605E0FFF7A0FDA0EB09000228CCD8A7
:1008B00097FAA7F0B0FA80F040F02000400901D08C
:1008C000286800E0686A97FAA7F1B1FA81F101F0AF
:1008D0001F0106FA01F10842E4D1207800076AD529
:1008E000A069A0B396FAA6F0B0FA80F008EB8000F9
:1008F000C0F88064FFF778FD814605E0FFF774FDDE
:10090000A0EB09000228A0D897FAA7F0B0FA80F06F
:1009100040F06000B6EB501F02D128680CE077E190
:1009200097FAA7F0B0FA80F040F06000B7EB501FE4
:1009300001D1286A00E0686A97FAA7F1B1FA81F15B
:1009400001F01F0106FA01F21042D7D033E0FFE7B1
:1009500096FAA6F0B0FA80F008EB8000C0F880A408
:10096000FFF742FD814605E0FFF73EFDA0EB0900E1
:1009700002289CD897FAA7F0B0FA80F040F0600007
:10098000B6EB501F01D128680BE097FAA7F0B0FA38
:1009900080F040F06000B7EB501F01D1286A00E002
:1009A000686A97FAA7F1B1FA81F101F01F0106FA1E
:1009B00001F21042D8D12078400774D5E8694FF091
:1009C0000009C00009D4E86940F08050E861E86996
:1009D0004FF0010900F08050009031480168C905CE
:1009E00012D4016841F480710160FFF7FDFC834679
:1009F00006E000BFFFF7F8FCA0EB0B00642875D8F9
:100A000027480068C005F5D5E06801280AD008B17C
:100A1000052811D0286A20F001002862286A20F0F9
:100A2000040002E0286A40F001002862E068C8B3D0
:100A3000FFF7DAFC83460DE0286A40F004002862E4
:100A4000F0E700BFFFF7D0FCA0EB0B0141F28830CC
:100A500081424BD897FAA7F0B0FA80F040F04000FE
:100A6000B6EB501F01D128680BE097FAA7F0B0FA57
:100A700080F040F04000B7EB501F01D1286A00E041
:100A8000686A97FAA7F1B1FA81F101F01F0106FA3D
:100A900001F21042D6D035E0001002400000424280
:100AA0000070004000E034E0FFF79EFC834607E062
:100AB000FFF79AFCA0EB0B0141F28830814215D878
:100AC00097FAA7F0B0FA80F040F04000B6EB501F64
:100AD00001D128680CE097FAA7F0B0FA80F040F056
:100AE0004000B7EB501F02D1286A01E083E0686A3A
:100AF00097FAA7F1B1FA81F101F01F0106FA01F2AC
:100B00001042D5D1B9F1000F03D0E86920F0805030
:100B1000E861E06980B36968C1F38101022977D097
:100B20004FF080714F00022809D091FAA1F0B0FA7D
:100B300080F048F820A0FFF757FC04465EE05046DE
:100B40008A4691FAA1F1B1FA81F1C14648F8210033
:100B5000FFF74AFC804605E0FFF746FCA0EB0800E3
:100B6000022848D897FAA7F0B0FA80F040F02000A9
:100B7000400902D0286801E056E0686A97FAA7F1B8
:100B8000B1FA81F101F01F0106FA01F10842E3D147
:100B9000D4E908100843696821F4741108436860B7
:100BA0009AFAAAF0B0FA80F049F82060FFF71CFC2E
:100BB000044604E0FFF718FC001B02281BD897FA34
:100BC000A7F0B0FA80F040F02000400901D028687A
:100BD00000E0686A97FAA7F1B1FA81F101F01F010C
:100BE00006FA01F10842E5D01EE000BFFFF7FCFB6A
:100BF000001B022802D90320BDE8F88F97FAA7F05E
:100C0000B0FA80F040F02000400902D0286801E0EE
:100C10000CE0686A97FAA7F1B1FA81F101F01F01BF
:100C200006FA01F10842E1D10020E5E70120E3E7FF
:100C300010B5401EB0F1807F01D3012010BD4FF0F0
:100C4000E02460610F21601700F0B0F90020A0617E
:100C500007202061002010BDFEE70000F0B5274E00
:100C60000121254A3378B77801FA03F47378F678CE
:100C700001FA03F301FA07F5B140B0B101281DD024
:100C800002282CD003280FD1D06946688E434660D5
:100C900010694168214341605069416819434160CE
:100CA0009069416829434160F0BD10694668A643D8
:100CB0004660506944681C43446007E050694668D8
:100CC0009E434660106943682343436090694368CC
:100CD0002B434360D06942680A434260F0BD90698B
:100CE0004668AE43466010694568254345605069D3
:100CF00044681C434460EDE75400002000000020DD
:100D000070B5104900200D8D4C8D8A8DCB8D0E490C
:100D100025FA00F6F60700D0087024FA00F6F60768
:100D200000D0487022FA00F6F60700D0887023FA47
:100D300000F6F60700D0C870401CC0B21028E7D3F8
:100D400070BD0000540000200000002070B5014676
:100D500030221C48FFF734FAFFF7D2FF194C226902
:100D60005368194901200D7800FA05F52B435360AB
:100D7000626953684D7800FA05F52B435360A26908
:100D800053688D7800FA05F52B435360E269536888
:100D9000C978884003435360218D01222069FFF701
:100DA0001EFB618D01226069FFF719FBA18D0122F5
:100DB000A069FFF714FBE18DE069BDE870400122F6
:100DC000FFF70DBB540000200000002070B5044662
:100DD0000020FFF743FF3D4D298C2868FFF7FAFA02
:100DE00000B101202070698C6868FFF7F3FA00B148
:100DF00001202071A98CA868FFF7ECFA00B101204E
:100E00002072E98CE868FFF7E5FA00B10120207351
:100E10000120FFF723FF298C2868FFF7DBFA00B1D8
:100E200001206070698C6868FFF7D4FA00B1012076
:100E30006071A98CA868FFF7CDFA00B1012060723B
:100E4000E98CE868FFF7C6FA00B101206073022060
:100E5000FFF704FF298C2868FFF7BCFA00B10120D6
:100E6000A070698C6868FFF7B5FA00B10120A07125
:100E7000A98CA868FFF7AEFA00B10120A072E98C36
:100E8000E868FFF7A7FA00B10120A0730320FFF77D
:100E9000E5FE298C2868FFF79DFA00B10120E0707B
:100EA000698C6868FFF796FA00B10120E071A98C9F
:100EB000A868FFF78FFA00B10120E072E98CE868BA
:100EC000FFF788FA00B10120E07370BD54000020E4
:100ED0002DE9F04387B014216846FFF78AF92F48BF
:100EE000416941F400314161416901F400310591EA
:100EF000416941F480214161416901F480210591FA
:100F0000416941F4002141614069DFF8949000F4A7
:100F100000204FF480650590002229464846FFF7DF
:100F20005EFA204F002280213846FFF758FA4FF42E
:100F300040764FF09048002231464046FFF74FFA86
:100F40000024E020CDE90004694640460294FFF702
:100F500081F900950125CDE901546946484603947D
:100F6000FFF778F980200090CDE9015469463846B2
:100F70000394FFF76FF90096CDE9015469464046A6
:100F80000394FFF767F94020CDE90004694648461D
:100F90000294FFF75FF907B0BDE8F083001002404C
:100FA0000004004800080048FEE770470907090EE2
:100FB000002806DA00F00F0000F1E02080F8141D90
:100FC000704700F1E02080F80014704770477047C8
:100FD000FFF710BA10B590B028216846FFF709F95D
:100FE00014210AA8FFF705F90220009001200490BF
:100FF00010200024059007946846FFF751FB0F204E
:10100000CDE90A040C940D9400210AA80E94FFF770
:1010100073FA10B010BD00001448016841F470016B
:1010200001601348016841F0010101604168114A03
:10103000114041600168104A11400160016821F4CB
:1010400080210160416821F4FE014160C16A21F004
:101050000F01C162016B094A1140016300218160E7
:101060000249C003803908607047000088ED00E045
:10107000001002400CC07FF8FFFFF6FECCFC00FF22
:10108000FEE702E008C8121F08C1002AFAD1704723
:101090007047002001E001C1121F002AFBD17047F8
:1010A0008CB0FFF7AFF9FFF795FFFFF711FF4FF097
:1010B000904002AB00901449144A019083E8070065
:1010C000CDE9060105902020ADF8200080214020C8
:1010D000ADF82410ADF82200ADF82600ADF82810C8
:1010E000C000ADF82A004010ADF82C008000ADF82B
:1010F0002E006846FFF72AFE0548FFF767FE6420CA
:10110000FFF796F8F8E700000004004800080048E0
:101110008400002002030405060708090A0B0C0DD1
:101120000E0F10100102030405060708090A0B0C34
:101130000D0E0F100000000000000000010203046B
:1011400006070809230000002A0000003000000004
:1011500031000000320000003300000034000000C5
:1011600035000000360000003700000038000000A5
:101170003900000041000000420000004300000070
:1011800044000000A41100080000002054000000EA
:1011900082100008F81100085400002044040000E8
:1011A00092100008000000005011000854110008BF
:1011B00058110008741100085C1100086011000843
:1011C0006411000878110008681100086C1100080B
:1011D000701100087C110008481100084C1100082B
:1011E00044110008801100080100000010000000F8
:0811F0000000000000127A006B
:040000050800018965
:00000001FF
